:1000000044C053C052C051C050C04FC04EC04DC07C
:100010004CC04BC04AC049C048C047C065C045C07D
:1000200044C043C042C041C00000000000000000C6
:1000300000030400000000000000000000000000B9
:100040000000010204081020408001020408102072
:100050008004080102010204081020800404040442
:10006000040404040202020202020201010101036B
:1000700003030303030300002E00250028002B00C8
:1000800000002D00240027002A0011241FBECFEFFE
:10009000D2E0DEBFCDBF21E0A0E0B1E001C01D9203
:1000A000A930B207E1F716D06AC1AACF61E080E0BB
:1000B000F7C061E080E02DD168EE73E080E090E071
:1000C00080D060E080E025D168EE73E080E090E0D1
:1000D00078C00895ADD0FDDFE9DFC0E0D0E0E9DF12
:1000E0002097E9F38DDFFBCF1F920F920FB60F928F
:1000F00011242F933F938F939F93AF93BF9380913E
:10010000010190910201A0910301B091040130918D
:10011000000123E0230F2D3720F40196A11DB11D0E
:1001200005C026E8230F0296A11DB11D20930001F2
:100130008093010190930201A0930301B093040105
:100140008091050190910601A0910701B0910801ED
:100150000196A11DB11D8093050190930601A09306
:100160000701B0930801BF91AF919F918F913F918B
:100170002F910F900FBE0F901F9018953FB7F894D6
:100180008091050190910601A0910701B0910801AD
:1001900026B5A89B05C02F3F19F00196A11DB11DE2
:1001A0003FBF6627782F892F9A2F620F711D811DFF
:1001B000911D42E0660F771F881F991F4A95D1F75E
:1001C00008958F929F92AF92BF92CF92DF92EF925B
:1001D000FF926B017C01D2DF4B015C01C114D104A1
:1001E000E104F104E1F0CAD0C9DF681979098A098C
:1001F0009B09683E73408105910580F321E0C21A96
:10020000D108E108F10888EE880E83E0981EA11C51
:10021000B11CC114D104E104F10431F7DFCFFF9028
:10022000EF90DF90CF90BF90AF909F908F90089508
:10023000789485B5826085BD85B5816085BDEEE623
:10024000F0E0808181608083E1E8F0E010828081CD
:1002500082608083808181608083E0E8F0E080813B
:1002600081608083EAE7F0E0808184608083808120
:1002700082608083808181608083808180688083C8
:100280000895833019F0843029F00895809180001A
:100290008F7703C0809180008F7D809380000895C8
:1002A000CF93DF9390E0FC01EE5BFF4F2491FC01C4
:1002B000E45AFF4F8491882349F190E0880F991FF9
:1002C000FC01E058FF4FA591B4918A589F4FFC0163
:1002D000C591D4919FB7611108C0F8948C91209575
:1002E00082238C93888182230AC0623051F4F8946F
:1002F0008C91322F309583238C938881822B888335
:1003000004C0F8948C91822B8C939FBFDF91CF9186
:1003100008950F931F93CF93DF931F92CDB7DEB74E
:10032000282F30E0F901E85DFF4F8491F901EE5B81
:10033000FF4F1491F901E45AFF4F04910023C1F0DB
:10034000882319F069839DDF6981E02FF0E0EE0FCB
:10035000FF1FEA58FF4FA591B4919FB7F8948C9175
:10036000611103C01095812301C0812B8C939FBF25
:100370000F90DF91CF911F910F9108950895F894F8
:02038000FFCFAD
:00000001FF
